20210328-06:44:27.779|123456 [INFO ] in : 8=FIX.4.4|9=106|35=A|34=1|49=Q000|52=20210328-06:44:27.779|56=XC461|553=primexm_TradeFeedr_q|554=******|98=0|108=30|141=Y|10=59|
20210328-21:00:00.516|123456 [INFO ] out: 8=FIX.4.4|9=112|35=V|34=2|49=Q000|52=20210328-21:00:00.516|56=XC461|262=0|263=1|264=16|265=1|146=1|55=EUR/USD|267=2|269=0|269=1|10=117|
20210328-21:00:00.516|123456 [INFO ] out: 8=FIX.4.4|9=112|35=V|34=3|49=Q000|52=20210328-21:00:00.516|56=XC461|262=1|263=1|264=16|265=1|146=1|55=USD/CAD|267=2|269=0|269=1|10=83|
20210328-21:00:17.156|123456 [INFO ] in : 8=FIX.4.4|9=231|35=W|34=4|49=XC461|52=20210328-21:00:17.156|56=Q000|55=EUR/USD|262=0|268=4|269=1|270=2.50|271=1000000|299=0|106=0|269=1|270=2.51|271=2000000|299=1|106=0|269=0|270=2.49|271=1000000|299=0|106=0|269=0|270=2.48|271=2000000|299=1|106=0|10=199|
20210328-21:00:17.156|123456 [INFO ] in : 8=FIX.4.4|9=231|35=W|34=5|49=XC461|52=20210328-21:00:17.156|56=Q000|55=USD/CAD|262=1|268=4|269=1|270=1.51|271=2000000|299=1|106=0|269=0|270=1.48|271=2000000|299=1|106=1|269=1|270=1.50|271=1000000|299=0|106=1|269=0|270=1.49|271=1000000|299=0|106=0|10=163|
20210328-21:00:17.157|123456 [INFO ] in : 8=FIX.4.4|9=184|35=i|34=6|49=XC461|52=20210328-21:00:17.157|56=Q000|117=1|296=1|302=0|295=2|299=0|106=0|134=1100000|135=2200000|188=2.47|190=2.49|299=1|106=1|134=1100000|135=2200000|188=2.46|190=2.48|10=245|
20210328-21:00:17.159|123456 [INFO ] in : 8=FIX.4.4|9=304|35=i|34=6|49=XC461|52=20210328-21:00:17.159|56=Q000|117=1|296=2|302=0|295=2|299=0|106=1|134=1200000|135=1200000|188=2.46|190=2.47|299=1|106=0|134=2300000|135=2300000|188=2.45|190=2.48|302=1|295=2|299=0|106=0|134=2200000|135=1100000|188=1.47|190=1.49|299=1|106=1|134=2200000|135=1100000|188=1.46|190=1.49|10=117|
20210328-21:00:17.160|123456 [INFO ] in : 8=FIX.4.4|9=91|35=i|34=6|49=XC461|52=20210328-21:00:17.160|56=Q000|296=1|302=0|295=1|299=0|106=1|188=2.44|10=0|
20210328-21:00:17.161|123456 [INFO ] in : 8=FIX.4.4|9=88|35=i|34=6|49=XC461|52=20210328-21:00:17.161|56=Q000|296=1|302=0|295=1|299=1|134=2400000|10=135|
20210328-21:00:17.162|123456 [INFO ] in : 8=FIX.4.4|9=91|35=i|34=6|49=XC461|52=20210328-21:00:17.162|56=Q000|296=1|302=0|295=1|299=0|106=0|188=2.43|10=0|
20210328-21:00:17.163|123456 [INFO ] in : 8=FIX.4.4|9=91|35=i|34=6|49=XC461|52=20210328-21:00:17.163|56=Q000|296=1|302=0|295=1|299=1|106=0|190=2.49|10=1|
20210328-21:00:17.164|123456 [INFO ] in : 8=FIX.4.4|9=88|35=i|34=6|49=XC461|52=20210328-21:00:17.164|56=Q000|296=1|302=0|295=1|299=0|135=1300000|10=136|
20210328-21:00:17.165|123456 [INFO ] in : 8=FIX.4.4|9=91|35=i|34=6|49=XC461|52=20210328-21:00:17.165|56=Q000|296=1|302=0|295=1|299=1|106=1|190=2.46|10=1|
20210328-21:00:17.166|123456 [INFO ] in : 8=FIX.4.4|9=231|35=W|34=4|49=XC461|52=20210328-21:00:17.166|56=Q000|55=EUR/USD|262=0|268=4|269=0|270=2.43|271=1200000|299=0|106=0|269=1|270=2.47|271=1300000|299=0|106=1|269=0|270=2.45|271=2400000|299=1|106=0|269=1|270=2.46|271=2300000|299=1|106=1|10=215|
20210328-21:00:17.168|123456 [INFO ] in : 8=FIX.4.4|9=231|35=W|34=5|49=XC461|52=20210328-21:00:17.168|56=Q000|55=USD/CAD|262=1|268=4|269=0|270=1.47|271=2200000|299=0|106=0|269=1|270=1.49|271=1100000|299=0|106=0|269=0|270=1.46|271=2200000|299=1|106=1|269=1|270=1.49|271=1100000|299=1|106=1|10=183|
20210328-21:00:17.170|123456 [INFO ] in : 8=FIX.4.4|9=114|35=W|34=4|49=XC461|52=20210328-21:00:17.170|56=Q000|55=EUR/USD|262=0|268=1|269=0|270=2.44|271=1000000|299=1|106=0|10=237|
20210328-21:00:17.171|123456 [INFO ] in : 8=FIX.4.4|9=114|35=W|34=4|49=XC461|52=20210328-21:00:17.171|56=Q000|55=EUR/USD|262=0|268=1|269=1|270=2.48|271=1000000|299=0|106=1|10=243|
20210328-21:00:17.180|123456 [INFO ] in : 8=FIX.4.4|9=231|35=W|34=5|49=XC461|52=20210328-21:00:17.180|56=Q000|55=USD/CAD|262=1|268=4|269=0|270=1.37|271=2300000|299=0|106=1|269=1|270=1.40|271=1200000|299=0|106=1|269=0|270=1.36|271=2300000|299=1|106=0|269=1|270=1.39|271=1200000|299=1|106=0|10=169|
20210328-21:00:17.181|123456 [INFO ] in : 8=FIX.4.4|9=231|35=W|34=5|49=XC461|52=20210328-21:00:17.181|56=Q000|55=USD/CAD|262=1|268=4|269=0|270=1.37|271=2100000|299=0|106=1|269=1|270=1.40|271=1300000|299=0|106=1|269=0|270=1.36|271=2200000|299=1|106=0|269=1|270=1.39|271=1400000|299=1|106=0|10=170|
20210328-21:00:17.182|123456 [INFO ] in : 8=FIX.4.4|9=231|35=W|34=5|49=XC461|52=20210328-21:00:17.182|56=Q000|55=USD/CAD|262=1|268=4|269=0|270=1.35|271=2100000|299=0|106=1|269=1|270=1.35|271=1300000|299=0|106=1|269=0|270=1.35|271=2200000|299=1|106=0|269=1|270=1.35|271=1400000|299=1|106=0|10=168|
20210328-21:00:17.185|123456 [INFO ] in : 8=FIX.4.4|9=231|35=W|34=5|49=XC461|52=20210328-21:00:17.185|56=Q000|55=USD/CAD|262=1|268=4|269=0|270=1.34|271=2000000|299=0|106=1|269=1|270=1.34|271=1500000|299=0|106=1|269=0|270=1.34|271=2100000|299=1|106=0|269=1|270=1.34|271=1200000|299=1|106=0|10=165|
20210328-21:00:17.186|123456 [INFO ] in : 8=FIX.4.4|9=231|35=W|34=5|49=XC461|52=20210328-21:00:17.186|56=Q000|55=USD/CAD|262=1|268=4|269=0|270=1.34|271=2000000|299=0|106=0|269=1|270=1.34|271=1500000|299=0|106=0|269=0|270=1.34|271=2100000|299=1|106=1|269=1|270=1.34|271=1200000|299=1|106=1|10=166|
20210328-21:00:17.187|123456 [INFO ] in : 8=FIX.4.4|9=153|35=W|34=5|49=XC461|52=20210328-21:00:17.187|56=Q000|55=USD/CAD|262=1|268=2|269=0|270=1.34|271=2100000|299=1|106=1|269=1|270=1.34|271=1200000|299=1|106=1|10=201|
20210328-06:43:54.543|123456 [INFO ] in : 8=FIX.4.4|9=55|35=5|34=2820|49=Q000|52=20210328-06:43:54.543|56=XC461|10=145|
20210328-21:01:17.187|123456 [INFO ] in : 8=FIX.4.4|9=106|35=A|34=1|49=Q000|52=20210328-21:01:17.187|56=XC461|553=primexm_TradeFeedr_q|554=******|98=0|108=30|141=Y|10=41|
20210328-21:02:00.516|123456 [INFO ] out: 8=FIX.4.4|9=112|35=V|34=2|49=Q000|52=20210328-21:02:00.516|56=XC461|262=0|263=1|264=16|265=1|146=1|55=EUR/USD|267=2|269=0|269=1|10=119|
20210328-21:02:00.516|123456 [INFO ] out: 8=FIX.4.4|9=112|35=V|34=3|49=Q000|52=20210328-21:02:00.516|56=XC461|262=1|263=1|264=16|265=1|146=1|55=USD/CAD|267=2|269=0|269=1|10=85|
20210328-21:02:17.157|123456 [INFO ] in : 8=FIX.4.4|9=124|35=i|34=6|49=XC461|52=20210328-21:02:17.157|56=Q000|296=1|302=1|295=1|299=0|106=0|134=1000000|135=1100000|188=1.33|190=1.35|10=33|
20210328-21:02:17.158|123456 [INFO ] in : 8=FIX.4.4|9=231|35=W|34=4|49=XC461|52=20210328-21:02:17.158|56=Q000|55=EUR/USD|262=0|268=4|269=0|270=2.44|271=2000000|299=0|106=1|269=1|270=2.48|271=1000000|299=0|106=1|269=0|270=2.45|271=1000000|299=1|106=0|269=1|270=2.49|271=2000000|299=1|106=0|10=211|
20210328-21:03:00.516|123456 [INFO ] out: 8=FIX.4.4|9=112|35=V|34=2|49=Q000|52=20210328-21:03:00.516|56=XC461|262=1|263=1|264=16|265=1|146=1|55=EUR/USD|267=2|269=0|269=1|10=121|
20210328-21:03:00.516|123456 [INFO ] out: 8=FIX.4.4|9=112|35=V|34=3|49=Q000|52=20210328-21:03:00.516|56=XC461|262=0|263=1|264=16|265=1|146=1|55=USD/CAD|267=2|269=0|269=1|10=85|
20210328-21:03:17.157|123456 [INFO ] in : 8=FIX.4.4|9=124|35=i|34=6|49=XC461|52=20210328-21:03:17.157|56=Q000|296=1|302=0|295=1|299=0|106=0|134=1000000|135=1100000|188=1.33|190=1.35|10=33|
20210328-21:03:17.157|123456 [INFO ] in : 8=FIX.4.4|9=124|35=i|34=6|49=XC461|52=20210328-21:03:17.157|56=Q000|296=1|302=1|295=1|299=1|106=1|134=2000000|135=2100000|188=2.33|190=2.35|10=40|
